{
  "contractName": "StarNotary",
  "abi": [
    {
      "inputs": [],
      "stateMutability": "nonpayable",
      "type": "constructor"
    },
    {
      "anonymous": false,
      "inputs": [
        {
          "indexed": true,
          "internalType": "address",
          "name": "owner",
          "type": "address"
        },
        {
          "indexed": true,
          "internalType": "address",
          "name": "approved",
          "type": "address"
        },
        {
          "indexed": true,
          "internalType": "uint256",
          "name": "tokenId",
          "type": "uint256"
        }
      ],
      "name": "Approval",
      "type": "event"
    },
    {
      "anonymous": false,
      "inputs": [
        {
          "indexed": true,
          "internalType": "address",
          "name": "owner",
          "type": "address"
        },
        {
          "indexed": true,
          "internalType": "address",
          "name": "operator",
          "type": "address"
        },
        {
          "indexed": false,
          "internalType": "bool",
          "name": "approved",
          "type": "bool"
        }
      ],
      "name": "ApprovalForAll",
      "type": "event"
    },
    {
      "anonymous": false,
      "inputs": [
        {
          "indexed": true,
          "internalType": "address",
          "name": "from",
          "type": "address"
        },
        {
          "indexed": true,
          "internalType": "address",
          "name": "to",
          "type": "address"
        },
        {
          "indexed": true,
          "internalType": "uint256",
          "name": "tokenId",
          "type": "uint256"
        }
      ],
      "name": "Transfer",
      "type": "event"
    },
    {
      "inputs": [
        {
          "internalType": "address",
          "name": "to",
          "type": "address"
        },
        {
          "internalType": "uint256",
          "name": "tokenId",
          "type": "uint256"
        }
      ],
      "name": "approve",
      "outputs": [],
      "stateMutability": "nonpayable",
      "type": "function"
    },
    {
      "inputs": [
        {
          "internalType": "address",
          "name": "owner",
          "type": "address"
        }
      ],
      "name": "balanceOf",
      "outputs": [
        {
          "internalType": "uint256",
          "name": "",
          "type": "uint256"
        }
      ],
      "stateMutability": "view",
      "type": "function",
      "constant": true
    },
    {
      "inputs": [
        {
          "internalType": "uint256",
          "name": "tokenId",
          "type": "uint256"
        }
      ],
      "name": "getApproved",
      "outputs": [
        {
          "internalType": "address",
          "name": "",
          "type": "address"
        }
      ],
      "stateMutability": "view",
      "type": "function",
      "constant": true
    },
    {
      "inputs": [
        {
          "internalType": "address",
          "name": "owner",
          "type": "address"
        },
        {
          "internalType": "address",
          "name": "operator",
          "type": "address"
        }
      ],
      "name": "isApprovedForAll",
      "outputs": [
        {
          "internalType": "bool",
          "name": "",
          "type": "bool"
        }
      ],
      "stateMutability": "view",
      "type": "function",
      "constant": true
    },
    {
      "inputs": [],
      "name": "name",
      "outputs": [
        {
          "internalType": "string",
          "name": "",
          "type": "string"
        }
      ],
      "stateMutability": "view",
      "type": "function",
      "constant": true
    },
    {
      "inputs": [
        {
          "internalType": "uint256",
          "name": "tokenId",
          "type": "uint256"
        }
      ],
      "name": "ownerOf",
      "outputs": [
        {
          "internalType": "address",
          "name": "",
          "type": "address"
        }
      ],
      "stateMutability": "view",
      "type": "function",
      "constant": true
    },
    {
      "inputs": [
        {
          "internalType": "address",
          "name": "from",
          "type": "address"
        },
        {
          "internalType": "address",
          "name": "to",
          "type": "address"
        },
        {
          "internalType": "uint256",
          "name": "tokenId",
          "type": "uint256"
        }
      ],
      "name": "safeTransferFrom",
      "outputs": [],
      "stateMutability": "nonpayable",
      "type": "function"
    },
    {
      "inputs": [
        {
          "internalType": "address",
          "name": "from",
          "type": "address"
        },
        {
          "internalType": "address",
          "name": "to",
          "type": "address"
        },
        {
          "internalType": "uint256",
          "name": "tokenId",
          "type": "uint256"
        },
        {
          "internalType": "bytes",
          "name": "_data",
          "type": "bytes"
        }
      ],
      "name": "safeTransferFrom",
      "outputs": [],
      "stateMutability": "nonpayable",
      "type": "function"
    },
    {
      "inputs": [
        {
          "internalType": "address",
          "name": "operator",
          "type": "address"
        },
        {
          "internalType": "bool",
          "name": "approved",
          "type": "bool"
        }
      ],
      "name": "setApprovalForAll",
      "outputs": [],
      "stateMutability": "nonpayable",
      "type": "function"
    },
    {
      "inputs": [
        {
          "internalType": "uint256",
          "name": "",
          "type": "uint256"
        }
      ],
      "name": "starsForSale",
      "outputs": [
        {
          "internalType": "uint256",
          "name": "",
          "type": "uint256"
        }
      ],
      "stateMutability": "view",
      "type": "function",
      "constant": true
    },
    {
      "inputs": [
        {
          "internalType": "bytes4",
          "name": "interfaceId",
          "type": "bytes4"
        }
      ],
      "name": "supportsInterface",
      "outputs": [
        {
          "internalType": "bool",
          "name": "",
          "type": "bool"
        }
      ],
      "stateMutability": "view",
      "type": "function",
      "constant": true
    },
    {
      "inputs": [],
      "name": "symbol",
      "outputs": [
        {
          "internalType": "string",
          "name": "",
          "type": "string"
        }
      ],
      "stateMutability": "view",
      "type": "function",
      "constant": true
    },
    {
      "inputs": [
        {
          "internalType": "uint256",
          "name": "",
          "type": "uint256"
        }
      ],
      "name": "tokenIdToStarInfo",
      "outputs": [
        {
          "internalType": "string",
          "name": "name",
          "type": "string"
        }
      ],
      "stateMutability": "view",
      "type": "function",
      "constant": true
    },
    {
      "inputs": [
        {
          "internalType": "uint256",
          "name": "tokenId",
          "type": "uint256"
        }
      ],
      "name": "tokenURI",
      "outputs": [
        {
          "internalType": "string",
          "name": "",
          "type": "string"
        }
      ],
      "stateMutability": "view",
      "type": "function",
      "constant": true
    },
    {
      "inputs": [
        {
          "internalType": "address",
          "name": "from",
          "type": "address"
        },
        {
          "internalType": "address",
          "name": "to",
          "type": "address"
        },
        {
          "internalType": "uint256",
          "name": "tokenId",
          "type": "uint256"
        }
      ],
      "name": "transferFrom",
      "outputs": [],
      "stateMutability": "nonpayable",
      "type": "function"
    },
    {
      "inputs": [
        {
          "internalType": "string",
          "name": "_name",
          "type": "string"
        },
        {
          "internalType": "uint256",
          "name": "_tokenId",
          "type": "uint256"
        }
      ],
      "name": "createStar",
      "outputs": [],
      "stateMutability": "nonpayable",
      "type": "function"
    },
    {
      "inputs": [
        {
          "internalType": "uint256",
          "name": "_tokenId",
          "type": "uint256"
        },
        {
          "internalType": "uint256",
          "name": "_price",
          "type": "uint256"
        }
      ],
      "name": "putStarUpForSale",
      "outputs": [],
      "stateMutability": "nonpayable",
      "type": "function"
    },
    {
      "inputs": [
        {
          "internalType": "uint256",
          "name": "_tokenId",
          "type": "uint256"
        }
      ],
      "name": "buyStar",
      "outputs": [],
      "stateMutability": "payable",
      "type": "function",
      "payable": true
    },
    {
      "inputs": [
        {
          "internalType": "uint256",
          "name": "_tokenId",
          "type": "uint256"
        }
      ],
      "name": "lookUptokenIdToStarInfo",
      "outputs": [
        {
          "internalType": "string",
          "name": "",
          "type": "string"
        }
      ],
      "stateMutability": "view",
      "type": "function",
      "constant": true
    },
    {
      "inputs": [
        {
          "internalType": "uint256",
          "name": "_tokenId1",
          "type": "uint256"
        },
        {
          "internalType": "uint256",
          "name": "_tokenId2",
          "type": "uint256"
        }
      ],
      "name": "exchangeStars",
      "outputs": [],
      "stateMutability": "nonpayable",
      "type": "function"
    },
    {
      "inputs": [
        {
          "internalType": "address",
          "name": "_to1",
          "type": "address"
        },
        {
          "internalType": "uint256",
          "name": "_tokenId",
          "type": "uint256"
        }
      ],
      "name": "transferStar",
      "outputs": [],
      "stateMutability": "nonpayable",
      "type": "function"
    }
  ],
  "bytecode": "0x60806040523480156200001157600080fd5b506040518060400160405280600a81526020017f4d6174656a746f6b656e000000000000000000000000000000000000000000008152506040518060400160405280600381526020017f4d544a0000000000000000000000000000000000000000000000000000000000815250816000908051906020019062000096929190620000b8565b508060019080519060200190620000af929190620000b8565b505050620001cd565b828054620000c69062000168565b90600052602060002090601f016020900481019282620000ea576000855562000136565b82601f106200010557805160ff191683800117855562000136565b8280016001018555821562000136579182015b828111156200013557825182559160200191906001019062000118565b5b50905062000145919062000149565b5090565b5b80821115620001645760008160009055506001016200014a565b5090565b600060028204905060018216806200018157607f821691505b602082108114156200019857620001976200019e565b5b50919050565b7f4e487b7100000000000000000000000000000000000000000000000000000000600052602260045260246000fd5b61311780620001dd6000396000f3fe60806040526004361061012a5760003560e01c806342842e0e116100ab578063a22cb4651161006f578063a22cb46514610405578063b88d4fde1461042e578063c87b56dd14610457578063d7830ccb14610494578063e7152a5c146104d1578063e985e9c5146104fa5761012a565b806342842e0e1461030e5780636352211e1461033757806370a082311461037457806395d89b41146103b15780639697c0a1146103dc5761012a565b806315e0afa5116100f257806315e0afa51461023a5780631967fd981461026357806323b872dd146102a05780632f1c34ef146102c9578063316a4361146102e55761012a565b806301ffc9a71461012f5780630564b1301461016c57806306fdde03146101a9578063081812fc146101d4578063095ea7b314610211575b600080fd5b34801561013b57600080fd5b5061015660048036038101906101519190612121565b610537565b6040516101639190612a0f565b60405180910390f35b34801561017857600080fd5b50610193600480360381019061018e91906121c7565b610619565b6040516101a09190612cac565b60405180910390f35b3480156101b557600080fd5b506101be610631565b6040516101cb9190612a2a565b60405180910390f35b3480156101e057600080fd5b506101fb60048036038101906101f691906121c7565b6106c3565b60405161020891906129a8565b60405180910390f35b34801561021d57600080fd5b50610238600480360381019061023391906120e5565b610748565b005b34801561024657600080fd5b50610261600480360381019061025c91906121f0565b610860565b005b34801561026f57600080fd5b5061028a600480360381019061028591906121c7565b61093a565b6040516102979190612a2a565b60405180910390f35b3480156102ac57600080fd5b506102c760048036038101906102c29190611fdf565b6109e0565b005b6102e360048036038101906102de91906121c7565b610a40565b005b3480156102f157600080fd5b5061030c600480360381019061030791906121f0565b610bcb565b005b34801561031a57600080fd5b5061033560048036038101906103309190611fdf565b610c5d565b005b34801561034357600080fd5b5061035e600480360381019061035991906121c7565b610c7d565b60405161036b91906129a8565b60405180910390f35b34801561038057600080fd5b5061039b60048036038101906103969190611f7a565b610d2f565b6040516103a89190612cac565b60405180910390f35b3480156103bd57600080fd5b506103c6610de7565b6040516103d39190612a2a565b60405180910390f35b3480156103e857600080fd5b5061040360048036038101906103fe9190612173565b610e79565b005b34801561041157600080fd5b5061042c600480360381019061042791906120a9565b610ecf565b005b34801561043a57600080fd5b506104556004803603810190610450919061202e565b611050565b005b34801561046357600080fd5b5061047e600480360381019061047991906121c7565b6110b2565b60405161048b9190612a2a565b60405180910390f35b3480156104a057600080fd5b506104bb60048036038101906104b691906121c7565b611159565b6040516104c89190612a2a565b60405180910390f35b3480156104dd57600080fd5b506104f860048036038101906104f391906120e5565b611207565b005b34801561050657600080fd5b50610521600480360381019061051c9190611fa3565b611292565b60405161052e9190612a0f565b60405180910390f35b60007f80ac58cd000000000000000000000000000000000000000000000000000000007bffffffffffffffffffffffffffffffffffffffffffffffffffffffff1916827bffffffffffffffffffffffffffffffffffffffffffffffffffffffff1916148061060257507f5b5e139f000000000000000000000000000000000000000000000000000000007bffffffffffffffffffffffffffffffffffffffffffffffffffffffff1916827bffffffffffffffffffffffffffffffffffffffffffffffffffffffff1916145b80610612575061061182611326565b5b9050919050565b60076020528060005260406000206000915090505481565b60606000805461064090612f0c565b80601f016020809104026020016040519081016040528092919081815260200182805461066c90612f0c565b80156106b95780601f1061068e576101008083540402835291602001916106b9565b820191906000526020600020905b81548152906001019060200180831161069c57829003601f168201915b5050505050905090565b60006106ce82611390565b61070d576040517f08c379a000000000000000000000000000000000000000000000000000000000815260040161070490612b8c565b60405180910390fd5b6004600083815260200190815260200160002060009054906101000a900473ffffffffffffffffffffffffffffffffffffffff169050919050565b600061075382610c7d565b90508073ffffffffffffffffffffffffffffffffffffffff168373ffffffffffffffffffffffffffffffffffffffff1614156107c4576040517f08c379a00000000000000000000000000000000000000000000000000000000081526004016107bb90612c4c565b60405180910390fd5b8073ffffffffffffffffffffffffffffffffffffffff166107e36113fc565b73ffffffffffffffffffffffffffffffffffffffff16148061081257506108118161080c6113fc565b611292565b5b610851576040517f08c379a000000000000000000000000000000000000000000000000000000000815260040161084890612b0c565b60405180910390fd5b61085b8383611404565b505050565b600061086b83610c7d565b9050600061087883610c7d565b90503373ffffffffffffffffffffffffffffffffffffffff168273ffffffffffffffffffffffffffffffffffffffff1614806108df57503373ffffffffffffffffffffffffffffffffffffffff168173ffffffffffffffffffffffffffffffffffffffff16145b61091e576040517f08c379a000000000000000000000000000000000000000000000000000000000815260040161091590612c2c565b60405180910390fd5b6109298282866109e0565b6109348183856109e0565b50505050565b600660205280600052604060002060009150905080600001805461095d90612f0c565b80601f016020809104026020016040519081016040528092919081815260200182805461098990612f0c565b80156109d65780601f106109ab576101008083540402835291602001916109d6565b820191906000526020600020905b8154815290600101906020018083116109b957829003601f168201915b5050505050905081565b6109f16109eb6113fc565b826114bd565b610a30576040517f08c379a0000000000000000000000000000000000000000000000000000000008152600401610a2790612c8c565b60405180910390fd5b610a3b83838361159b565b505050565b6000600760008381526020019081526020016000205411610a96576040517f08c379a0000000000000000000000000000000000000000000000000000000008152600401610a8d90612c6c565b60405180910390fd5b6000600760008381526020019081526020016000205490506000610ab983610c7d565b9050813411610afd576040517f08c379a0000000000000000000000000000000000000000000000000000000008152600401610af490612c0c565b60405180910390fd5b610b088133856109e0565b6000610b13826117f7565b90508073ffffffffffffffffffffffffffffffffffffffff166108fc849081150290604051600060405180830381858888f19350505050158015610b5b573d6000803e3d6000fd5b5082341115610bc5576000610b6f336117f7565b90508073ffffffffffffffffffffffffffffffffffffffff166108fc8534610b979190612e22565b9081150290604051600060405180830381858888f19350505050158015610bc2573d6000803e3d6000fd5b50505b50505050565b3373ffffffffffffffffffffffffffffffffffffffff16610beb83610c7d565b73ffffffffffffffffffffffffffffffffffffffff1614610c41576040517f08c379a0000000000000000000000000000000000000000000000000000000008152600401610c3890612a4c565b60405180910390fd5b8060076000848152602001908152602001600020819055505050565b610c7883838360405180602001604052806000815250611050565b505050565b6000806002600084815260200190815260200160002060009054906101000a900473ffffffffffffffffffffffffffffffffffffffff169050600073ffffffffffffffffffffffffffffffffffffffff168173ffffffffffffffffffffffffffffffffffffffff161415610d26576040517f08c379a0000000000000000000000000000000000000000000000000000000008152600401610d1d90612b4c565b60405180910390fd5b80915050919050565b60008073ffffffffffffffffffffffffffffffffffffffff168273ffffffffffffffffffffffffffffffffffffffff161415610da0576040517f08c379a0000000000000000000000000000000000000000000000000000000008152600401610d9790612b2c565b60405180910390fd5b600360008373ffffffffffffffffffffffffffffffffffffffff1673ffffffffffffffffffffffffffffffffffffffff168152602001908152602001600020549050919050565b606060018054610df690612f0c565b80601f0160208091040260200160405190810160405280929190818152602001828054610e2290612f0c565b8015610e6f5780601f10610e4457610100808354040283529160200191610e6f565b820191906000526020600020905b815481529060010190602001808311610e5257829003601f168201915b5050505050905090565b6000604051806020016040528084815250905080600660008481526020019081526020016000206000820151816000019080519060200190610ebc929190611d9e565b50905050610eca3383611801565b505050565b610ed76113fc565b73ffffffffffffffffffffffffffffffffffffffff168273ffffffffffffffffffffffffffffffffffffffff161415610f45576040517f08c379a0000000000000000000000000000000000000000000000000000000008152600401610f3c90612acc565b60405180910390fd5b8060056000610f526113fc565b73ffffffffffffffffffffffffffffffffffffffff1673ffffffffffffffffffffffffffffffffffffffff16815260200190815260200160002060008473ffffffffffffffffffffffffffffffffffffffff1673ffffffffffffffffffffffffffffffffffffffff16815260200190815260200160002060006101000a81548160ff0219169083151502179055508173ffffffffffffffffffffffffffffffffffffffff16610fff6113fc565b73ffffffffffffffffffffffffffffffffffffffff167f17307eab39ab6107e8899845ad3d59bd9653f200f220920489ca2b5937696c31836040516110449190612a0f565b60405180910390a35050565b61106161105b6113fc565b836114bd565b6110a0576040517f08c379a000000000000000000000000000000000000000000000000000000000815260040161109790612c8c565b60405180910390fd5b6110ac848484846119cf565b50505050565b60606110bd82611390565b6110fc576040517f08c379a00000000000000000000000000000000000000000000000000000000081526004016110f390612bec565b60405180910390fd5b6000611106611a2b565b905060008151116111265760405180602001604052806000815250611151565b8061113084611a42565b604051602001611141929190612984565b6040516020818303038152906040525b915050919050565b6060600060066000848152602001908152602001600020600001805461117e90612f0c565b80601f01602080910402602001604051908101604052809291908181526020018280546111aa90612f0c565b80156111f75780601f106111cc576101008083540402835291602001916111f7565b820191906000526020600020905b8154815290600101906020018083116111da57829003601f168201915b5050505050905080915050919050565b600061121282610c7d565b90503373ffffffffffffffffffffffffffffffffffffffff168173ffffffffffffffffffffffffffffffffffffffff1614611282576040517f08c379a000000000000000000000000000000000000000000000000000000000815260040161127990612bac565b60405180910390fd5b61128d8184846109e0565b505050565b6000600560008473ffffffffffffffffffffffffffffffffffffffff1673ffffffffffffffffffffffffffffffffffffffff16815260200190815260200160002060008373ffffffffffffffffffffffffffffffffffffffff1673ffffffffffffffffffffffffffffffffffffffff16815260200190815260200160002060009054906101000a900460ff16905092915050565b60007f01ffc9a7000000000000000000000000000000000000000000000000000000007bffffffffffffffffffffffffffffffffffffffffffffffffffffffff1916827bffffffffffffffffffffffffffffffffffffffffffffffffffffffff1916149050919050565b60008073ffffffffffffffffffffffffffffffffffffffff166002600084815260200190815260200160002060009054906101000a900473ffffffffffffffffffffffffffffffffffffffff1673ffffffffffffffffffffffffffffffffffffffff1614159050919050565b600033905090565b816004600083815260200190815260200160002060006101000a81548173ffffffffffffffffffffffffffffffffffffffff021916908373ffffffffffffffffffffffffffffffffffffffff160217905550808273ffffffffffffffffffffffffffffffffffffffff1661147783610c7d565b73ffffffffffffffffffffffffffffffffffffffff167f8c5be1e5ebec7d5bd14f71427d1e84f3dd0314c0f7b2291e5b200ac8c7c3b92560405160405180910390a45050565b60006114c882611390565b611507576040517f08c379a00000000000000000000000000000000000000000000000000000000081526004016114fe90612aec565b60405180910390fd5b600061151283610c7d565b90508073ffffffffffffffffffffffffffffffffffffffff168473ffffffffffffffffffffffffffffffffffffffff16148061158157508373ffffffffffffffffffffffffffffffffffffffff16611569846106c3565b73ffffffffffffffffffffffffffffffffffffffff16145b8061159257506115918185611292565b5b91505092915050565b8273ffffffffffffffffffffffffffffffffffffffff166115bb82610c7d565b73ffffffffffffffffffffffffffffffffffffffff1614611611576040517f08c379a000000000000000000000000000000000000000000000000000000000815260040161160890612bcc565b60405180910390fd5b600073ffffffffffffffffffffffffffffffffffffffff168273ffffffffffffffffffffffffffffffffffffffff161415611681576040517f08c379a000000000000000000000000000000000000000000000000000000000815260040161167890612aac565b60405180910390fd5b61168c838383611bef565b611697600082611404565b6001600360008573ffffffffffffffffffffffffffffffffffffffff1673ffffffffffffffffffffffffffffffffffffffff16815260200190815260200160002060008282546116e79190612e22565b925050819055506001600360008473ffffffffffffffffffffffffffffffffffffffff1673ffffffffffffffffffffffffffffffffffffffff168152602001908152602001600020600082825461173e9190612d9b565b92505081905550816002600083815260200190815260200160002060006101000a81548173ffffffffffffffffffffffffffffffffffffffff021916908373ffffffffffffffffffffffffffffffffffffffff160217905550808273ffffffffffffffffffffffffffffffffffffffff168473ffffffffffffffffffffffffffffffffffffffff167fddf252ad1be2c89b69c2b068fc378daa952ba7f163c4a11628f55a4df523b3ef60405160405180910390a4505050565b6000819050919050565b600073ffffffffffffffffffffffffffffffffffffffff168273ffffffffffffffffffffffffffffffffffffffff161415611871576040517f08c379a000000000000000000000000000000000000000000000000000000000815260040161186890612b6c565b60405180910390fd5b61187a81611390565b156118ba576040517f08c379a00000000000000000000000000000000000000000000000000000000081526004016118b190612a8c565b60405180910390fd5b6118c660008383611bef565b6001600360008473ffffffffffffffffffffffffffffffffffffffff1673ffffffffffffffffffffffffffffffffffffffff16815260200190815260200160002060008282546119169190612d9b565b92505081905550816002600083815260200190815260200160002060006101000a81548173ffffffffffffffffffffffffffffffffffffffff021916908373ffffffffffffffffffffffffffffffffffffffff160217905550808273ffffffffffffffffffffffffffffffffffffffff16600073ffffffffffffffffffffffffffffffffffffffff167fddf252ad1be2c89b69c2b068fc378daa952ba7f163c4a11628f55a4df523b3ef60405160405180910390a45050565b6119da84848461159b565b6119e684848484611bf4565b611a25576040517f08c379a0000000000000000000000000000000000000000000000000000000008152600401611a1c90612a6c565b60405180910390fd5b50505050565b606060405180602001604052806000815250905090565b60606000821415611a8a576040518060400160405280600181526020017f30000000000000000000000000000000000000000000000000000000000000008152509050611bea565b600082905060005b60008214611abc578080611aa590612f3e565b915050600a82611ab59190612df1565b9150611a92565b60008167ffffffffffffffff811115611afe577f4e487b7100000000000000000000000000000000000000000000000000000000600052604160045260246000fd5b6040519080825280601f01601f191660200182016040528015611b305781602001600182028036833780820191505090505b5090505b60008514611be357600182611b499190612e22565b9150600a85611b589190612f87565b6030611b649190612d9b565b60f81b818381518110611ba0577f4e487b7100000000000000000000000000000000000000000000000000000000600052603260045260246000fd5b60200101907effffffffffffffffffffffffffffffffffffffffffffffffffffffffffffff1916908160001a905350600a85611bdc9190612df1565b9450611b34565b8093505050505b919050565b505050565b6000611c158473ffffffffffffffffffffffffffffffffffffffff16611d8b565b15611d7e578373ffffffffffffffffffffffffffffffffffffffff1663150b7a02611c3e6113fc565b8786866040518563ffffffff1660e01b8152600401611c6094939291906129c3565b602060405180830381600087803b158015611c7a57600080fd5b505af1925050508015611cab57506040513d601f19601f82011682018060405250810190611ca8919061214a565b60015b611d2e573d8060008114611cdb576040519150601f19603f3d011682016040523d82523d6000602084013e611ce0565b606091505b50600081511415611d26576040517f08c379a0000000000000000000000000000000000000000000000000000000008152600401611d1d90612a6c565b60405180910390fd5b805181602001fd5b63150b7a0260e01b7bffffffffffffffffffffffffffffffffffffffffffffffffffffffff1916817bffffffffffffffffffffffffffffffffffffffffffffffffffffffff191614915050611d83565b600190505b949350505050565b600080823b905060008111915050919050565b828054611daa90612f0c565b90600052602060002090601f016020900481019282611dcc5760008555611e13565b82601f10611de557805160ff1916838001178555611e13565b82800160010185558215611e13579182015b82811115611e12578251825591602001919060010190611df7565b5b509050611e209190611e24565b5090565b5b80821115611e3d576000816000905550600101611e25565b5090565b6000611e54611e4f84612cf8565b612cc7565b905082815260208101848484011115611e6c57600080fd5b611e77848285612eca565b509392505050565b6000611e92611e8d84612d28565b612cc7565b905082815260208101848484011115611eaa57600080fd5b611eb5848285612eca565b509392505050565b600081359050611ecc81613085565b92915050565b600081359050611ee18161309c565b92915050565b600081359050611ef6816130b3565b92915050565b600081519050611f0b816130b3565b92915050565b600082601f830112611f2257600080fd5b8135611f32848260208601611e41565b91505092915050565b600082601f830112611f4c57600080fd5b8135611f5c848260208601611e7f565b91505092915050565b600081359050611f74816130ca565b92915050565b600060208284031215611f8c57600080fd5b6000611f9a84828501611ebd565b91505092915050565b60008060408385031215611fb657600080fd5b6000611fc485828601611ebd565b9250506020611fd585828601611ebd565b9150509250929050565b600080600060608486031215611ff457600080fd5b600061200286828701611ebd565b935050602061201386828701611ebd565b925050604061202486828701611f65565b9150509250925092565b6000806000806080858703121561204457600080fd5b600061205287828801611ebd565b945050602061206387828801611ebd565b935050604061207487828801611f65565b925050606085013567ffffffffffffffff81111561209157600080fd5b61209d87828801611f11565b91505092959194509250565b600080604083850312156120bc57600080fd5b60006120ca85828601611ebd565b92505060206120db85828601611ed2565b9150509250929050565b600080604083850312156120f857600080fd5b600061210685828601611ebd565b925050602061211785828601611f65565b9150509250929050565b60006020828403121561213357600080fd5b600061214184828501611ee7565b91505092915050565b60006020828403121561215c57600080fd5b600061216a84828501611efc565b91505092915050565b6000806040838503121561218657600080fd5b600083013567ffffffffffffffff8111156121a057600080fd5b6121ac85828601611f3b565b92505060206121bd85828601611f65565b9150509250929050565b6000602082840312156121d957600080fd5b60006121e784828501611f65565b91505092915050565b6000806040838503121561220357600080fd5b600061221185828601611f65565b925050602061222285828601611f65565b9150509250929050565b61223581612e56565b82525050565b61224481612e68565b82525050565b600061225582612d58565b61225f8185612d6e565b935061226f818560208601612ed9565b61227881613074565b840191505092915050565b600061228e82612d63565b6122988185612d7f565b93506122a8818560208601612ed9565b6122b181613074565b840191505092915050565b60006122c782612d63565b6122d18185612d90565b93506122e1818560208601612ed9565b80840191505092915050565b60006122fa602783612d7f565b91507f596f752063616e27742073616c6520746865205374617220796f7520646f6e2760008301527f74206f776e6564000000000000000000000000000000000000000000000000006020830152604082019050919050565b6000612360603283612d7f565b91507f4552433732313a207472616e7366657220746f206e6f6e20455243373231526560008301527f63656976657220696d706c656d656e74657200000000000000000000000000006020830152604082019050919050565b60006123c6601c83612d7f565b91507f4552433732313a20746f6b656e20616c7265616479206d696e746564000000006000830152602082019050919050565b6000612406602483612d7f565b91507f4552433732313a207472616e7366657220746f20746865207a65726f2061646460008301527f72657373000000000000000000000000000000000000000000000000000000006020830152604082019050919050565b600061246c601983612d7f565b91507f4552433732313a20617070726f766520746f2063616c6c6572000000000000006000830152602082019050919050565b60006124ac602c83612d7f565b91507f4552433732313a206f70657261746f7220717565727920666f72206e6f6e657860008301527f697374656e7420746f6b656e00000000000000000000000000000000000000006020830152604082019050919050565b6000612512603883612d7f565b91507f4552433732313a20617070726f76652063616c6c6572206973206e6f74206f7760008301527f6e6572206e6f7220617070726f76656420666f7220616c6c00000000000000006020830152604082019050919050565b6000612578602a83612d7f565b91507f4552433732313a2062616c616e636520717565727920666f7220746865207a6560008301527f726f2061646472657373000000000000000000000000000000000000000000006020830152604082019050919050565b60006125de602983612d7f565b91507f4552433732313a206f776e657220717565727920666f72206e6f6e657869737460008301527f656e7420746f6b656e00000000000000000000000000000000000000000000006020830152604082019050919050565b6000612644602083612d7f565b91507f4552433732313a206d696e7420746f20746865207a65726f20616464726573736000830152602082019050919050565b6000612684602c83612d7f565b91507f4552433732313a20617070726f76656420717565727920666f72206e6f6e657860008301527f697374656e7420746f6b656e00000000000000000000000000000000000000006020830152604082019050919050565b60006126ea601b83612d7f565b91507f2d2d2d2d2d3e207472616e73666572537461722829206572726f7200000000006000830152602082019050919050565b600061272a602983612d7f565b91507f4552433732313a207472616e73666572206f6620746f6b656e2074686174206960008301527f73206e6f74206f776e00000000000000000000000000000000000000000000006020830152604082019050919050565b6000612790602f83612d7f565b91507f4552433732314d657461646174613a2055524920717565727920666f72206e6f60008301527f6e6578697374656e7420746f6b656e00000000000000000000000000000000006020830152604082019050919050565b60006127f6601d83612d7f565b91507f596f75206e65656420746f206861766520656e6f7567682045746865720000006000830152602082019050919050565b6000612836601b83612d7f565b91507f2d2d2d2d3e2065786368616e676553746172732829206572726f7200000000006000830152602082019050919050565b6000612876602183612d7f565b91507f4552433732313a20617070726f76616c20746f2063757272656e74206f776e6560008301527f72000000000000000000000000000000000000000000000000000000000000006020830152604082019050919050565b60006128dc601e83612d7f565b91507f54686520537461722073686f756c6420626520757020666f722073616c6500006000830152602082019050919050565b600061291c603183612d7f565b91507f4552433732313a207472616e736665722063616c6c6572206973206e6f74206f60008301527f776e6572206e6f7220617070726f7665640000000000000000000000000000006020830152604082019050919050565b61297e81612ec0565b82525050565b600061299082856122bc565b915061299c82846122bc565b91508190509392505050565b60006020820190506129bd600083018461222c565b92915050565b60006080820190506129d8600083018761222c565b6129e5602083018661222c565b6129f26040830185612975565b8181036060830152612a04818461224a565b905095945050505050565b6000602082019050612a24600083018461223b565b92915050565b60006020820190508181036000830152612a448184612283565b905092915050565b60006020820190508181036000830152612a65816122ed565b9050919050565b60006020820190508181036000830152612a8581612353565b9050919050565b60006020820190508181036000830152612aa5816123b9565b9050919050565b60006020820190508181036000830152612ac5816123f9565b9050919050565b60006020820190508181036000830152612ae58161245f565b9050919050565b60006020820190508181036000830152612b058161249f565b9050919050565b60006020820190508181036000830152612b2581612505565b9050919050565b60006020820190508181036000830152612b458161256b565b9050919050565b60006020820190508181036000830152612b65816125d1565b9050919050565b60006020820190508181036000830152612b8581612637565b9050919050565b60006020820190508181036000830152612ba581612677565b9050919050565b60006020820190508181036000830152612bc5816126dd565b9050919050565b60006020820190508181036000830152612be58161271d565b9050919050565b60006020820190508181036000830152612c0581612783565b9050919050565b60006020820190508181036000830152612c25816127e9565b9050919050565b60006020820190508181036000830152612c4581612829565b9050919050565b60006020820190508181036000830152612c6581612869565b9050919050565b60006020820190508181036000830152612c85816128cf565b9050919050565b60006020820190508181036000830152612ca58161290f565b9050919050565b6000602082019050612cc16000830184612975565b92915050565b6000604051905081810181811067ffffffffffffffff82111715612cee57612ced613045565b5b8060405250919050565b600067ffffffffffffffff821115612d1357612d12613045565b5b601f19601f8301169050602081019050919050565b600067ffffffffffffffff821115612d4357612d42613045565b5b601f19601f8301169050602081019050919050565b600081519050919050565b600081519050919050565b600082825260208201905092915050565b600082825260208201905092915050565b600081905092915050565b6000612da682612ec0565b9150612db183612ec0565b9250827fffffffffffffffffffffffffffffffffffffffffffffffffffffffffffffffff03821115612de657612de5612fb8565b5b828201905092915050565b6000612dfc82612ec0565b9150612e0783612ec0565b925082612e1757612e16612fe7565b5b828204905092915050565b6000612e2d82612ec0565b9150612e3883612ec0565b925082821015612e4b57612e4a612fb8565b5b828203905092915050565b6000612e6182612ea0565b9050919050565b60008115159050919050565b60007fffffffff0000000000000000000000000000000000000000000000000000000082169050919050565b600073ffffffffffffffffffffffffffffffffffffffff82169050919050565b6000819050919050565b82818337600083830152505050565b60005b83811015612ef7578082015181840152602081019050612edc565b83811115612f06576000848401525b50505050565b60006002820490506001821680612f2457607f821691505b60208210811415612f3857612f37613016565b5b50919050565b6000612f4982612ec0565b91507fffffffffffffffffffffffffffffffffffffffffffffffffffffffffffffffff821415612f7c57612f7b612fb8565b5b600182019050919050565b6000612f9282612ec0565b9150612f9d83612ec0565b925082612fad57612fac612fe7565b5b828206905092915050565b7f4e487b7100000000000000000000000000000000000000000000000000000000600052601160045260246000fd5b7f4e487b7100000000000000000000000000000000000000000000000000000000600052601260045260246000fd5b7f4e487b7100000000000000000000000000000000000000000000000000000000600052602260045260246000fd5b7f4e487b7100000000000000000000000000000000000000000000000000000000600052604160045260246000fd5b6000601f19601f8301169050919050565b61308e81612e56565b811461309957600080fd5b50565b6130a581612e68565b81146130b057600080fd5b50565b6130bc81612e74565b81146130c757600080fd5b50565b6130d381612ec0565b81146130de57600080fd5b5056fea2646970667358221220cdccd796def78d161c3ce5146f35852a138ced056b5308e0d709e9b672a79c9164736f6c63430008000033",
  "immutableReferences": {},
  "source": "// SPDX-License-Identifier: MIT\n\npragma solidity >=0.8.0;\n\n//Importing openzeppelin-solidity ERC-721 implemented Standard\nimport \"@openzeppelin/contracts/token/ERC721/ERC721.sol\";\n\n// StarNotary Contract declaration inheritance the ERC721 openzeppelin implementation\ncontract StarNotary is ERC721 {\n\n    // Star data\n    struct Star {\n        string name;\n    }\n\n    // Implement Task 1 Add a name and symbol properties\n    // name: Is a short name to your token\n    // symbol: Is a short string like 'USD' -> 'American Dollar'\n    constructor() ERC721(\"Matejtoken\", \"MTJ\") {}\n\n    // mapping the Star with the Owner Address\n    mapping(uint256 => Star) public tokenIdToStarInfo;\n    // mapping the TokenId and price\n    mapping(uint256 => uint256) public starsForSale;\n\n    \n    // Create Star using the Struct\n    function createStar(string memory _name, uint256 _tokenId) public { // Passing the name and tokenId as a parameters\n        Star memory newStar = Star(_name); // Star is an struct so we are creating a new Star\n        tokenIdToStarInfo[_tokenId] = newStar; // Creating in memory the Star -> tokenId mapping\n        _mint(msg.sender, _tokenId); // _mint assign the the star with _tokenId to the sender address (ownership)\n    }\n\n    // Putting an Star for sale (Adding the star tokenid into the mapping starsForSale, first verify that the sender is the owner)\n    function putStarUpForSale(uint256 _tokenId, uint256 _price) public {\n        require(ownerOf(_tokenId) == msg.sender, \"You can't sale the Star you don't owned\");\n        starsForSale[_tokenId] = _price;\n    }\n\n\n    // Function that allows you to convert an address into a payable address\n    function _make_payable(address x) internal pure returns (address payable) {\n        return payable(address(x));\n    }\n\n    function buyStar(uint256 _tokenId) public  payable {\n        require(starsForSale[_tokenId] > 0, \"The Star should be up for sale\");\n        uint256 starCost = starsForSale[_tokenId];\n        address ownerAddress = ownerOf(_tokenId);\n        require(msg.value > starCost, \"You need to have enough Ether\");\n        transferFrom(ownerAddress, msg.sender, _tokenId); // We can't use _addTokenTo or_removeTokenFrom functions, now we have to use _transferFrom\n        address payable ownerAddressPayable = _make_payable(ownerAddress); // We need to make this conversion to be able to use transfer() function to transfer ethers\n        ownerAddressPayable.transfer(starCost);\n        if(msg.value > starCost) {\n            address payable senderAddressPayable = _make_payable(msg.sender);\n            senderAddressPayable.transfer(msg.value - starCost);\n            // msg.sender.transfer(msg.value - starCost);\n\n        }\n    }\n\n    // Implement Task 1 lookUptokenIdToStarInfo\n    // Add a function lookUptokenIdToStarInfo, that looks up the stars using the Token ID, and then returns the name of the star.\n    function lookUptokenIdToStarInfo (uint _tokenId) public view returns (string memory) {\n        //1. You should return the Star saved in tokenIdToStarInfo mapping\n        string memory name = tokenIdToStarInfo[_tokenId].name;\n        return name;\n    }\n\n    // Implement Task 1 Exchange Stars function\n    // Add a function called exchangeStars, so 2 users can exchange their star tokens...Do not worry about the price, just write code to exchange stars between users.\n    function exchangeStars(uint256 _tokenId1, uint256 _tokenId2) public {\n        address ownerOfToken1 = ownerOf(_tokenId1); // for some reason I have to put these into variables in order to make the condition in \"required\" to pass ????\n        address ownerOfToken2 = ownerOf(_tokenId2);\n        //1. Passing to star tokenId you will need to check if the owner of _tokenId1 or _tokenId2 is the sender\n        require(ownerOfToken1 ==  msg.sender || ownerOfToken2 == msg.sender, '----> exchangeStars() error');\n        //2. You don't have to check for the price of the token (star)\n        //3. Get the owner of the two tokens (ownerOf(_tokenId1), ownerOf(_tokenId1)\n        //4. Use _transferFrom function to exchange the tokens.\n        transferFrom(ownerOfToken1, ownerOfToken2, _tokenId1);\n        transferFrom(ownerOfToken2, ownerOfToken1, _tokenId2);\n    }\n\n    // Implement Task 1 Transfer Stars\n    // Write a function to Transfer a Star. The function should transfer a star from the address of the caller. The function should accept 2 arguments, the address to transfer the star to, and the token ID of the star.\n    function transferStar(address _to1, uint256 _tokenId) public {\n        //1. Check if the sender is the ownerOf(_tokenId)\n        address ownerOfToken1 = ownerOf(_tokenId); // same like in line 73 ??\n        require(ownerOfToken1 == msg.sender, '-----> transferStar() error');\n        //2. Use the transferFrom(from, to, tokenId); function to transfer the Star\n        // transferStar(_to1, _tokenId); // stack overflow error and couldn't see it for 3 weeks :()\n        transferFrom(ownerOfToken1, _to1, _tokenId);\n    }\n\n}",
  "sourcePath": "/home/mlazarevic/Desktop/udacity-test-2/contracts/StarNotary.sol",
  "compiler": {
    "name": "solc",
    "version": "0.8.0+commit.c7dfd78e.Emscripten.clang"
  },
  "schemaVersion": "3.4.0",
  "updatedAt": "2021-05-17T07:59:58.941Z",
  "networkType": "ethereum",
  "devdoc": {
    "kind": "dev",
    "methods": {
      "approve(address,uint256)": {
        "details": "See {IERC721-approve}."
      },
      "balanceOf(address)": {
        "details": "See {IERC721-balanceOf}."
      },
      "getApproved(uint256)": {
        "details": "See {IERC721-getApproved}."
      },
      "isApprovedForAll(address,address)": {
        "details": "See {IERC721-isApprovedForAll}."
      },
      "name()": {
        "details": "See {IERC721Metadata-name}."
      },
      "ownerOf(uint256)": {
        "details": "See {IERC721-ownerOf}."
      },
      "safeTransferFrom(address,address,uint256)": {
        "details": "See {IERC721-safeTransferFrom}."
      },
      "safeTransferFrom(address,address,uint256,bytes)": {
        "details": "See {IERC721-safeTransferFrom}."
      },
      "setApprovalForAll(address,bool)": {
        "details": "See {IERC721-setApprovalForAll}."
      },
      "supportsInterface(bytes4)": {
        "details": "See {IERC165-supportsInterface}."
      },
      "symbol()": {
        "details": "See {IERC721Metadata-symbol}."
      },
      "tokenURI(uint256)": {
        "details": "See {IERC721Metadata-tokenURI}."
      },
      "transferFrom(address,address,uint256)": {
        "details": "See {IERC721-transferFrom}."
      }
    },
    "version": 1
  },
  "userdoc": {
    "kind": "user",
    "methods": {},
    "version": 1
  }
}